{"address":"0xd785D8bb64c8e23b659b21D2AB045d192B4481B5","bytecode":"0x6080604052600060045562989680600555620d2f00600f5534801561002357600080fd5b50604051615ebf380380615ebf83398101604081905261004291610216565b80808080806001600160a01b03811661006e57604051639fabe1c160e01b815260040160405180910390fd5b604080513360248083019190915282518083039091018152604490910182526020810180516001600160e01b0316630935e01b60e21b17905290516000916001600160a01b038416916100c19190610246565b600060405180830381855afa9150503d80600081146100fc576040519150601f19603f3d011682016040523d82523d6000602084013e610101565b606091505b50509050806101235760405163031773fb60e61b815260040160405180910390fd5b507f94de5bb549dc3b3f2a557f7067a0d52c6921e50388ea6bea5cf4ee301cf1a40080546001600160a01b0319166001600160a01b039290921691909117905550506002805462ff00001916905550600160035561017f610186565b5050610275565b61018e6101e4565b6002805462ff00001916620100001790557f62e78cea01bee320cd4e420270b5ea74000d11b0c9f74754ebdbfc544b05a2586101c73390565b6040516001600160a01b03909116815260200160405180910390a1565b6101f660025462010000900460ff1690565b156102145760405163d93c066560e01b815260040160405180910390fd5b565b60006020828403121561022857600080fd5b81516001600160a01b038116811461023f57600080fd5b9392505050565b6000825160005b81811015610267576020818601810151858301520161024d565b506000920191825250919050565b615c3b806102846000396000f3fe6080604052600436106102a25760003560e01c80637a1ed23411610165578063bc43cbaf116100cc578063d820f49211610085578063d820f4921461095d578063da8ec8e114610973578063dacd7bcd14610993578063ddef9ea1146109b3578063e7a7250a146109d3578063f5ff5c761461067b578063f8389526146109e8576102a9565b8063bc43cbaf14610873578063c415b95c14610888578063c59ed9cd146108a8578063c9fe4f07146108c8578063cafb2202146108f7578063cff0ab961461090c576102a9565b80638456cb591161011e5780638456cb591461076357806388b51f4b1461077857806395d89b41146107a75780639af1d35a146107bc578063a31048ec1461083c578063b50a957514610853576102a9565b80637a1ed234146106ae5780637bb7bed1146106ce5780637dc0d1d0146106ee5780637f4d8f371461070357806380b4ec9f14610723578063839006f214610743576102a9565b80632b3297f9116102095780633f4ba83a116101c25780633f4ba83a1461055757806347799da81461056c57806349f41a421461062857806350187a26146106485780635c60da1b1461067b5780635c975abb14610690576102a9565b80632b3297f914610483578063313ce567146104a3578063372500ab146104cf5780633778ab1e146104f1578063382ef1881461050757806338d52e0f14610537576102a9565b80631b11d0ff1161025b5780631b11d0ff146103c05780631bb5e2dc146103e05780631cb44dfc1461040d5780631ee427001461042d5780631f8244c71461044d578063252cf2d21461046d576102a9565b806301ffc9a7146102b357806303506456146102f957806306fdde0314610327578063158ef93e14610349578063164fb39c1461035e578063188973681461038b576102a9565b366102a957005b6102b1610a08565b005b3480156102bf57600080fd5b506102e46102ce366004614c4b565b6001600160e01b03191663f4e6f0c160e01b1490565b60405190151581526020015b60405180910390f35b34801561030557600080fd5b50610319610314366004614cd2565b610a1a565b6040519081526020016102f0565b34801561033357600080fd5b5061033c610a5a565b6040516102f09190614d77565b34801561035557600080fd5b506102e4610ae8565b34801561036a57600080fd5b5061037e610379366004614d98565b610b2f565b6040516102f09190614deb565b34801561039757600080fd5b506103ab6103a6366004614dfa565b610b74565b604080519283526020830191909152016102f0565b3480156103cc57600080fd5b506102e46103db366004614ed4565b610bbd565b3480156103ec57600080fd5b506104006103fb366004614f4f565b610cc5565b6040516102f09190614f68565b34801561041957600080fd5b506102b1610428366004614f7c565b610ce5565b34801561043957600080fd5b506102b161044836600461504e565b610cfc565b34801561045957600080fd5b50610319610468366004615082565b610d10565b34801561047957600080fd5b5061031960055481565b34801561048f57600080fd5b50602654610400906001600160a01b031681565b3480156104af57600080fd5b506002546104bd9060ff1681565b60405160ff90911681526020016102f0565b3480156104db57600080fd5b506104e4610d54565b6040516102f091906150e6565b3480156104fd57600080fd5b5061031960145481565b34801561051357600080fd5b506102e4610522366004614f7c565b60156020526000908152604090205460ff1681565b34801561054357600080fd5b50600654610400906001600160a01b031681565b34801561056357600080fd5b506102b1610ecf565b34801561057857600080fd5b50600854600954600a54600b54600c54600d54600e546105c7966001600160401b0380821697600160401b8304821697600160801b8404831697600160c01b909404831696929091169490938a565b604080516001600160401b039b8c168152998b1660208b0152978a1697890197909752948816606088015296909216608086015260a085015260c084015260e0830193909352610100820192909252610120810191909152610140016102f0565b34801561063457600080fd5b506102b1610643366004614f7c565b610ee2565b34801561065457600080fd5b50610668610663366004614f4f565b610ef6565b60405161ffff90911681526020016102f0565b34801561068757600080fd5b50610400610f24565b34801561069c57600080fd5b5060025462010000900460ff166102e4565b3480156106ba57600080fd5b506102b16106c936600461512a565b610f2e565b3480156106da57600080fd5b506104006106e9366004614f4f565b610f40565b3480156106fa57600080fd5b50610400610f50565b34801561070f57600080fd5b506102b161071e366004614f7c565b610f71565b34801561072f57600080fd5b5061031961073e366004614f4f565b610f85565b34801561074f57600080fd5b506102b161075e366004614f7c565b610f8d565b34801561076f57600080fd5b506102b1610fc0565b34801561078457600080fd5b5061078f6202a30081565b6040516001600160401b0390911681526020016102f0565b3480156107b357600080fd5b5061033c610fd3565b3480156107c857600080fd5b50601154601254610802916001600160401b0380821692600160401b8304821692600160801b8104831692600160c01b9091048116911685565b604080516001600160401b03968716815294861660208601529285169284019290925283166060830152909116608082015260a0016102f0565b34801561084857600080fd5b5061078f62093a8081565b34801561085f57600080fd5b5061031961086e366004614f4f565b610fe0565b34801561087f57600080fd5b50610400610feb565b34801561089457600080fd5b50601354610400906001600160a01b031681565b3480156108b457600080fd5b506103196108c3366004615185565b611013565b3480156108d457600080fd5b506108e86108e33660046151c6565b61104b565b6040516102f093929190615221565b34801561090357600080fd5b50610319611093565b34801561091857600080fd5b50604554604654604754610937926001600160a01b0390811692169083565b604080516001600160a01b039485168152939092166020840152908201526060016102f0565b34801561096957600080fd5b5061031960045481565b34801561097f57600080fd5b506102b161098e36600461524c565b61109d565b34801561099f57600080fd5b506102b16109ae366004615293565b6110af565b3480156109bf57600080fd5b506104006109ce366004614f4f565b6112ac565b3480156109df57600080fd5b506104e46112bc565b3480156109f457600080fd5b50610319610a03366004614f4f565b61137e565b610a18610a13611389565b611393565b565b6000610a246113b7565b610a3c600080516020615be6833981519152336113e1565b610a47848484611468565b9050610a536001600355565b9392505050565b60008054610a67906152ce565b80601f0160208091040260200160405190810160405280929190818152602001828054610a93906152ce565b8015610ae05780601f10610ab557610100808354040283529160200191610ae0565b820191906000526020600020905b815481529060010190602001808311610ac357829003601f168201915b505050505081565b600254600090610100900460ff168015610b1457506000610b0761183e565b546001600160a01b031614155b8015610b2a57506006546001600160a01b031615155b905090565b610b37614c2c565b610b4f600080516020615be6833981519152336113e1565b81610b6257610b5d83611862565b610b6b565b610b6b8361199d565b90505b92915050565b600080610b7f6113b7565b610b97600080516020615be6833981519152336113e1565b610ba48787878787611a8e565b9092509050610bb36001600355565b9550959350505050565b600080604560010160009054906101000a90046001600160a01b03166001600160a01b031663026b1d5f6040518163ffffffff1660e01b8152600401602060405180830381865afa158015610c16573d6000803e3d6000fd5b505050506040513d601f19601f82011682018060405250810190610c3a9190615302565b9050336001600160a01b03821614610c64576040516282b42960e81b815260040160405180910390fd5b86860160008080610c778789018961531f565b92509250925082610c9357610c8e828c8684611af2565b610c9f565b610c9f828c8684612127565b610cb36001600160a01b038d1686866125d0565b5060019b9a5050505050505050505050565b60328160088110610cd557600080fd5b01546001600160a01b0316905081565b610cf06000336113e1565b610cf98161268e565b50565b610d076000336113e1565b610cf9816127ae565b6000610d1a6113b7565b610d32600080516020615be6833981519152336113e1565b610d3f8686868686612972565b9050610d4b6001600355565b95945050505050565b604454606090610100900460ff166001600160401b03811115610d7957610d79614f99565b604051908082528060200260200182016040528015610da2578160200160208202803683370190505b506045546040516374d7814960e11b81529192506001600160a01b03169063e9af029290610dd4903090600401614f68565b600060405180830381600087803b158015610dee57600080fd5b505af1158015610e02573d6000803e3d6000fd5b50505050610e0e612dec565b60005b604454610100900460ff16811015610ecb57603b8160088110610e3657610e36615377565b01546040516370a0823160e01b81526001600160a01b03909116906370a0823190610e65903090600401614f68565b602060405180830381865afa158015610e82573d6000803e3d6000fd5b505050506040513d601f19601f82011682018060405250810190610ea6919061538d565b828281518110610eb857610eb8615377565b6020908102919091010152600101610e11565b5090565b610eda6000336113e1565b610a18612df5565b610eed6000336113e1565b610cf981612e43565b60308160088110610f0657600080fd5b60109182820401919006600202915054906101000a900461ffff1681565b6000610b2a611389565b610f3a84848484612f17565b50505050565b603b8160088110610cd557600080fd5b6000600080516020615bc68339815191525b546001600160a01b0316919050565b610f7c6000336113e1565b610cf9816130ad565b600080610b6e565b610fb77faf290d8680820aad922855f39b306097b20e28774d6c1ad35a20325630c3a02c336113e1565b610cf98161314f565b610fcb6000336113e1565b610a18613325565b60018054610a67906152ce565b6000610b6e82613366565b60007f94de5bb549dc3b3f2a557f7067a0d52c6921e50388ea6bea5cf4ee301cf1a400610f62565b600061102d600080516020615be6833981519152336113e1565b6110356113b7565b61103f838361337a565b9050610b6e6001600355565b611053614c2c565b61105b614c2c565b611063614c2c565b61107b600080516020615be6833981519152336113e1565b6110858585613498565b9250925092505b9250925092565b6000610b2a6135ec565b6110aa8383836000612f17565b505050565b6110ba6000336113e1565b60006110cc60c0830160a08401614f7c565b6001600160a01b0316036110f357604051639fabe1c160e01b815260040160405180910390fd5b61110b61110660c0830160a08401614f7c565b612e43565b600061111d60e0830160c08401614f7c565b6001600160a01b0316146111435761114361113e60e0830160c08401614f7c565b61268e565b7fffe86e2b60bc69a3832641185d195b8ed6fe0e65c6cc390c67dbb9d7cc30430080546001600160a01b03191630179055600061117e61183e565b546040516001600160a01b039091169063dacd7bcd60e01b906111a590859060240161568c565b60408051601f198184030181529181526020820180516001600160e01b03166001600160e01b03199094169390931790925290516111e391906157af565b600060405180830381855af49150503d806000811461121e576040519150601f19603f3d011682016040523d82523d6000602084013e611223565b606091505b5050905080611245576040516339b21b5d60e11b815260040160405180910390fd5b60006112556102008401846157cb565b905011156112a8576112a861126e6102008401846157cb565b8080601f0160208091040260200160405190810160405280939291908181526020018383808284376000920191909152506127ae92505050565b5050565b60278160088110610cd557600080fd5b60455460405163331faf7160e21b81526060916000916001600160a01b039091169063cc7ebdc4906112f2903090600401614f68565b602060405180830381865afa15801561130f573d6000803e3d6000fd5b505050506040513d601f19601f82011682018060405250810190611333919061538d565b60445490915060ff6101009091041660011461136f5761136a611363603b600101546001600160a01b0316613612565b8290613728565b611378565b6113788161378c565b91505090565b6000610b6e826137d3565b6000610f6261183e565b3660008037600080366000845af43d6000803e8080156113b2573d6000f35b3d6000fd5b6002600354036113da57604051633ee5aeb560e01b815260040160405180910390fd5b6002600355565b7f94de5bb549dc3b3f2a557f7067a0d52c6921e50388ea6bea5cf4ee301cf1a400546040516312d9a6ad60e01b8152600481018490526001600160a01b038381166024830152909116906312d9a6ad9060440160006040518083038186803b15801561144c57600080fd5b505afa158015611460573d6000803e3d6000fd5b505050505050565b6000808060005b60445460ff168110156117d957600a87826008811061149057611490615377565b6020020135106117d157602781600881106114ad576114ad615377565b01546006546001600160a01b03908116911614611626576026546006546001600160a01b03918216916398cd40369116602784600881106114f0576114f0615377565b01546001600160a01b03168a856008811061150d5761150d615377565b60200201358a8a8781811061152457611524615377565b905060200281019061153691906157cb565b6040518663ffffffff1660e01b8152600401611556959493929190615811565b60408051808303816000875af1158015611574573d6000803e3d6000fd5b505050506040513d601f19601f820116820180604052508101906115989190615845565b93509150602781600881106115af576115af615377565b01546040516370a0823160e01b81526001600160a01b03909116906370a08231906115de903090600401614f68565b602060405180830381865afa1580156115fb573d6000803e3d6000fd5b505050506040513d601f19601f8201168201806040525081019061161f919061538d565b9150611659565b86816008811061163857611638615377565b6020020135915086816008811061165157611651615377565b602002013592505b6000611664826137d3565b905060006027836008811061167b5761167b615377565b01546040516370a0823160e01b81526001600160a01b03909116906370a08231906116aa903090600401614f68565b602060405180830381865afa1580156116c7573d6000803e3d6000fd5b505050506040513d601f19601f820116820180604052508101906116eb919061538d565b90506116f983858a8a61388b565b81611703846137d3565b0391506027836008811061171957611719615377565b01546040516370a0823160e01b81526001600160a01b03909116906370a0823190611748903090600401614f68565b602060405180830381865afa158015611765573d6000803e3d6000fd5b505050506040513d601f19601f82011682018060405250810190611789919061538d565b90036117a26117966138a0565b54829061ffff166138c4565b8210156117ca57604051637640cbd760e01b8152600481018390526024015b60405180910390fd5b5050928201925b60010161146f565b506009805467ffffffffffffffff1916426001600160401b038116919091179091556040805185815260208101929092527fb089286041f4c8faf70006ecf5d7f8b6dce0f3bba8bdc30c237fd656060bff2c910160405180910390a150509392505050565b7f25da31c40a795936c86465edf13c4b2aa77f4e3670b8bdd5625b556504dc9d0090565b61186a614c2c565b6000806118756135ec565b61187d6138d7565b60315491935091508282019060009061189e90839061ffff16612710613991565b905060006118aa613a41565b90506118b7826032613a8f565b8101870196506118c78786613a9e565b965060006118d6888403613ab4565b905060006118e382613b0e565b90506000811380156118f457508881115b156118fd578098505b60005b60445460ff1681101561199057600a8a1061199057600083826008811061192957611929615377565b6020020151131561198857600061195584836008811061194b5761194b615377565b6020020151613b3f565b90508a8111156119625750895b61196c8183613b75565b8a836008811061197e5761197e615377565b6020020152909903985b600101611900565b5050505050505050919050565b6119a5614c2c565b6000806119b06135ec565b6119b86138d7565b909250905081810160008590036119f5576031546000906119e590839061ffff1661271090810390613991565b90506119f18382613c20565b9550505b6000611a02868501613ab4565b905060005b60445460ff16811015611a8457600a8710611a84576000828260088110611a3057611a30615377565b60200201511215611a7c576000611a5283836008811061194b5761194b615377565b905087811115611a5f5750865b80878360088110611a7257611a72615377565b6020020152909603955b600101611a07565b5050505050919050565b6044546000908190610100900460ff1685141580611ab1575060445460ff168314155b15611acf57604051635cb045db60e01b815260040160405180910390fd5b611ad9868661337a565b9150611ae6878585611468565b90509550959350505050565b6033546001600160a01b0316630e752702611b1485611b0f613c37565b613a9e565b6040518263ffffffff1660e01b8152600401611b3291815260200190565b6020604051808303816000875af1158015611b51573d6000803e3d6000fd5b505050506040513d601f19601f82011682018060405250810190611b75919061538d565b506027546040516370a0823160e01b81526000916001600160a01b0316906370a0823190611ba7903090600401614f68565b602060405180830381865afa158015611bc4573d6000803e3d6000fd5b505050506040513d601f19601f82011682018060405250810190611be8919061538d565b6032549091506001600160a01b031663db006a75611c0586613ca9565b6040518263ffffffff1660e01b8152600401611c2391815260200190565b6020604051808303816000875af1158015611c42573d6000803e3d6000fd5b505050506040513d601f19601f82011682018060405250810190611c66919061538d565b506027546040516370a0823160e01b815282916001600160a01b0316906370a0823190611c97903090600401614f68565b602060405180830381865afa158015611cb4573d6000803e3d6000fd5b505050506040513d601f19601f82011682018060405250810190611cd8919061538d565b611ce2919061587f565b6026546027546028546040516370a0823160e01b81529394506000936001600160a01b03938416936398cd403693811692169082906370a0823190611d2b903090600401614f68565b602060405180830381865afa158015611d48573d6000803e3d6000fd5b505050506040513d601f19601f82011682018060405250810190611d6c919061538d565b876040518563ffffffff1660e01b8152600401611d8c9493929190615892565b60408051808303816000875af1158015611daa573d6000803e3d6000fd5b505050506040513d601f19601f82011682018060405250810190611dce9190615845565b5090508381118015611df157506028546006546001600160a01b03918216911614155b15611f08576000611e00613c37565b90508015611e8c576000611e1686840383613a9e565b60335460405163073a938160e11b8152600481018390529192506001600160a01b031690630e752702906024016020604051808303816000875af1158015611e62573d6000803e3d6000fd5b505050506040513d601f19601f82011682018060405250810190611e86919061538d565b50909103905b84821115611f065760335460405163140e25ad60e31b815286840360048201526001600160a01b039091169063a0712d68906024016020604051808303816000875af1158015611ee0573d6000803e3d6000fd5b505050506040513d601f19601f82011682018060405250810190611f04919061538d565b505b505b6027546040516370a0823160e01b81526000916001600160a01b0316906370a0823190611f39903090600401614f68565b602060405180830381865afa158015611f56573d6000803e3d6000fd5b505050506040513d601f19601f82011682018060405250810190611f7a919061538d565b9050611f87876005613d3f565b96508681101561211e576032546001600160a01b031663db006a756120bb61204a611fb0610f50565b6001600160a01b031663029b465d6027600101546001600160a01b0316878e036027600001546040516001600160e01b031960e086901b1681526120029392916001600160a01b0316906004016158c5565b602060405180830381865afa15801561201f573d6000803e3d6000fd5b505050506040513d601f19601f82011682018060405250810190612043919061538d565b6000613d52565b6032546040516370a0823160e01b81526001600160a01b03909116906370a082319061207a903090600401614f68565b602060405180830381865afa158015612097573d6000803e3d6000fd5b505050506040513d601f19601f82011682018060405250810190611b0f919061538d565b6040518263ffffffff1660e01b81526004016120d991815260200190565b6020604051808303816000875af11580156120f8573d6000803e3d6000fd5b505050506040513d601f19601f8201168201806040525081019061211c919061538d565b505b50505050505050565b6032546047546001600160a01b039091169063a0712d689061214f9086906063198101613991565b6040518263ffffffff1660e01b815260040161216d91815260200190565b6020604051808303816000875af115801561218c573d6000803e3d6000fd5b505050506040513d601f19601f820116820180604052508101906121b0919061538d565b5060006121be846001613dfd565b60335460405163317afabb60e21b8152600481018390529192506001600160a01b03169063c5ebeaec906024016020604051808303816000875af115801561220a573d6000803e3d6000fd5b505050506040513d601f19601f8201168201806040525081019061222e919061538d565b50602654602854602754604051634c66a01b60e11b81526001600160a01b03938416936398cd40369361226e939082169291169086908890600401615892565b60408051808303816000875af115801561228c573d6000803e3d6000fd5b505050506040513d601f19601f820116820180604052508101906122b09190615845565b50506027546040516370a0823160e01b81526000916001600160a01b0316906370a08231906122e3903090600401614f68565b602060405180830381865afa158015612300573d6000803e3d6000fd5b505050506040513d601f19601f82011682018060405250810190612324919061538d565b6006549091506001600160a01b03166027600001546001600160a01b0316146124bf57838111156123c55760325460405163140e25ad60e31b815285830360048201526001600160a01b039091169063a0712d68906024016020604051808303816000875af115801561239b573d6000803e3d6000fd5b505050506040513d601f19601f820116820180604052508101906123bf919061538d565b506124bf565b6032546001600160a01b031663db006a756123de610f50565b60285460275460405163029b465d60e01b81526001600160a01b039384169363029b465d9361241b9390821692898d0392909116906004016158c5565b602060405180830381865afa158015612438573d6000803e3d6000fd5b505050506040513d601f19601f8201168201806040525081019061245c919061538d565b6040518263ffffffff1660e01b815260040161247a91815260200190565b6020604051808303816000875af1158015612499573d6000803e3d6000fd5b505050506040513d601f19601f820116820180604052508101906124bd919061538d565b505b6028546040516370a0823160e01b81526001600160a01b03909116906370a08231906124ef903090600401614f68565b602060405180830381865afa15801561250c573d6000803e3d6000fd5b505050506040513d601f19601f82011682018060405250810190612530919061538d565b6006549091506001600160a01b03166027600101546001600160a01b03161480159061255c5750600081115b156114605760335460405163073a938160e11b8152600481018390526001600160a01b0390911690630e752702906024016020604051808303816000875af11580156125ac573d6000803e3d6000fd5b505050506040513d601f19601f8201168201806040525081019061211e919061538d565b604080516001600160a01b038416602482015260448082018490528251808303909101815260649091019091526020810180516001600160e01b031663095ea7b360e01b1790526126218482613ebe565b610f3a576040516001600160a01b0384811660248301526000604483015261268491869182169063095ea7b3906064015b604051602081830303815290604052915060e01b6020820180516001600160e01b038381831617835250505050613f61565b610f3a8482613f61565b6001600160a01b0381166126b557604051639fabe1c160e01b815260040160405180910390fd5b6000816001600160a01b0316630268d37960e01b60006040516024016126db9190614f68565b60408051601f198184030181529181526020820180516001600160e01b03166001600160e01b031990941693909317909252905161271991906157af565b600060405180830381855afa9150503d8060008114612754576040519150601f19603f3d011682016040523d82523d6000602084013e612759565b606091505b505090508061277b5760405163031773fb60e61b815260040160405180910390fd5b81600080516020615bc68339815191525b80546001600160a01b0319166001600160a01b03929092169190911790555050565b808060200190518101906127c291906158e8565b8051604580546001600160a01b03199081166001600160a01b039384169081179092556020840151604680549092169084161790556040928301516047556032549251638e8f294b60e01b81526000939192638e8f294b9261282992911690600401614f68565b606060405180830381865afa158015612846573d6000803e3d6000fd5b505050506040513d601f19601f8201168201806040525081019061286a9190615952565b5060305490925062010000900461ffff1615159050806128af5750604754670de0b6b3a764000082900368056bc75e2d63100000816128ab576128ab615995565b0411155b156128cc576040516282b42960e81b815260040160405180910390fd5b6128d7600019613fbb565b6045546001600160a01b031663c299823861290f6032600101546001600160a01b03166032600001546001600160a01b031690614053565b6040518263ffffffff1660e01b815260040161292b91906159ab565b6000604051808303816000875af115801561294a573d6000803e3d6000fd5b505050506040513d6000823e601f3d908101601f191682016040526110aa91908101906159ec565b600061297c6140c2565b600a556000612989614110565b905060008060005b60445460ff16811015612cfc57600a8a82600881106129b2576129b2615377565b602002013510612cf4576129dc8a82600881106129d1576129d1615377565b602002013582613d52565b92506000602782600881106129f3576129f3615377565b01546040516370a0823160e01b81526001600160a01b03909116906370a0823190612a22903090600401614f68565b602060405180830381865afa158015612a3f573d6000803e3d6000fd5b505050506040513d601f19601f82011682018060405250810190612a63919061538d565b9050612a748260ff16858a8a61415e565b8060278360088110612a8857612a88615377565b01546040516370a0823160e01b81526001600160a01b03909116906370a0823190612ab7903090600401614f68565b602060405180830381865afa158015612ad4573d6000803e3d6000fd5b505050506040513d601f19601f82011682018060405250810190612af8919061538d565b60065491900393506001600160a01b031660278360088110612b1c57612b1c615377565b01546001600160a01b031614612c7b57878783818110612b3e57612b3e615377565b9050602002810190612b5091906157cb565b9050600003612b7257604051635cb045db60e01b815260040160405180910390fd5b600160278360088110612b8757612b87615377565b01546001600160a01b031603612ba057612ba083614188565b6026546001600160a01b03166398cd403660278460088110612bc457612bc4615377565b01546006546001600160a01b0391821691168e8660088110612be857612be8615377565b60200201358c8c88818110612bff57612bff615377565b9050602002810190612c1191906157cb565b6040518663ffffffff1660e01b8152600401612c31959493929190615811565b60408051808303816000875af1158015612c4f573d6000803e3d6000fd5b505050506040513d601f19601f82011682018060405250810190612c739190615845565b509250612c95565b8a8260088110612c8d57612c8d615377565b602002013592505b612ccb612ca06138a0565b5461ffff16612cc58d8560088110612cba57612cba615377565b602002013585614216565b906138c4565b831015612cee57604051637640cbd760e01b8152600481018490526024016117c1565b50938101935b600101612991565b50601a8054840190819055600754600a54600092612d3792612d29920269d3c21bcecceda1000000613991565b612d3161427f565b90613c20565b90508881108015612d46575087155b15612d6757604051637640cbd760e01b8152600481018290526024016117c1565b612d728588886142cd565b600880546001600160401b0342908116600160801b0267ffffffffffffffff60801b1990921691909117909155604080518781526020810184905280820192909252517f199c51a8cd3b6aa8f80abc4f5c713f20c111837887163a1bbaa2dd5f61a554ab9181900360600190a15050505095945050505050565b610a1847614188565b612dfd6143d6565b6002805462ff0000191690557f5db9ee0a495bf2e6ff9c91a7834c1ba4fdd244a5e8aa4e537bd38aeae4b073aa335b604051612e399190614f68565b60405180910390a1565b6001600160a01b038116612e6a57604051639fabe1c160e01b815260040160405180910390fd5b60408051600481526024810182526020810180516001600160e01b0316634555d5c960e01b17905290516000916001600160a01b03841691612eac91906157af565b600060405180830381855afa9150503d8060008114612ee7576040519150601f19603f3d011682016040523d82523d6000602084013e612eec565b606091505b5050905080612f0e5760405163031773fb60e61b815260040160405180910390fd5b8161278c61183e565b600080516020615bc68339815191526000829003612fd65780546001600160a01b031615612fbd5780546006546040516366225ccd60e11b81526001600160a01b039182166004820152878216602482015291169063cc44b99a90604401602060405180830381865afa158015612f92573d6000803e3d6000fd5b505050506040513d601f19601f82011682018060405250810190612fb6919061538d565b9150612fd6565b6040516370cc4dc560e01b815260040160405180910390fd5b6000612fe061183e565b546040516001600160a01b0390911690631e87b48d60e21b9061300d908990899089908990602401615a91565b60408051601f198184030181529181526020820180516001600160e01b03166001600160e01b031990941693909317909252905161304b91906157af565b600060405180830381855af49150503d8060008114613086576040519150601f19603f3d011682016040523d82523d6000602084013e61308b565b606091505b5050905080611460576040516339b21b5d60e11b815260040160405180910390fd5b6001600160a01b0381811660009081527fcdc3586352dd8d1c1f612724c6bc83986aa6f0f0cfc9ed7d016fc5daa15d14006020908152604091829020825180840190935280546001600160401b0381168452600160401b900490931690820152613116906143ff565b1561312057600080fd5b80546001600160e01b03191633600160401b0267ffffffffffffffff191617426001600160401b031617905550565b6001600160a01b0381811660009081527fcdc3586352dd8d1c1f612724c6bc83986aa6f0f0cfc9ed7d016fc5daa15d14006020908152604091829020825180840190935280546001600160401b0381168452600160401b9004909316908201526131b8906143ff565b6131c157600080fd5b805467ffffffffffffffff191681556000196001600160a01b0383160161324e578054604051600091600160401b90046001600160a01b03169047908381818185875af1925050503d8060008114613235576040519150601f19603f3d011682016040523d82523d6000602084013e61323a565b606091505b505090508061324857600080fd5b506132de565b80546040516370a0823160e01b81526132de916001600160a01b03600160401b909104811691908516906370a082319061328c903090600401614f68565b602060405180830381865afa1580156132a9573d6000803e3d6000fd5b505050506040513d601f19601f820116820180604052508101906132cd919061538d565b6001600160a01b0385169190614422565b506001600160a01b031660009081527fcdc3586352dd8d1c1f612724c6bc83986aa6f0f0cfc9ed7d016fc5daa15d14006020526040902080546001600160e01b0319169055565b61332d614453565b6002805462ff00001916620100001790557f62e78cea01bee320cd4e420270b5ea74000d11b0c9f74754ebdbfc544b05a258612e2c3390565b6000610b6e613374836137d3565b83614216565b600061338e61338761447d565b84846144d1565b600854601054600f5460405163615bbc6760e11b8152600160c01b9093046001600160401b0316600484015260248301919091526044820152909150819073__$e35f34868618272d02ce9e16afb239dde6$__9063c2b778ce90606401602060405180830381865af4158015613408573d6000803e3d6000fd5b505050506040513d601f19601f8201168201806040525081019061342c919061538d565b01601055600880546001600160c01b0316600160c01b426001600160401b03811691909102919091179091556040805183815260208101929092527f6c8433a8e155f0af04dba058d4e4695f7da554578963d876bdf4a6d8d6399d9c910160405180910390a192915050565b6134a0614c2c565b6134a8614c2c565b6134b0614c2c565b831561351c576028546001600160a01b03908116845260275416825260646134d8863561466e565b6134e2919061587f565b81526006546027546001600160a01b03908116911614613517576135146135076138a0565b5482519061ffff166138c4565b81525b61108c565b6027546001600160a01b0390811684526028541682526135e061353d6138a0565b5461ffff1661354a610f50565b6028546001600160a01b039182169163029b465d911661356a8a356146a3565b60275460405160e085901b6001600160e01b03191681526135999392916001600160a01b0316906004016158c5565b602060405180830381865afa1580156135b6573d6000803e3d6000fd5b505050506040513d601f19601f820116820180604052508101906135da919061538d565b90613d3f565b81529194909350909150565b6000805b60445460ff16811015610ecb5761360681613366565b909101906001016135f0565b60006001600160a01b0382166001148061363957506025546001600160a01b038381169116145b6136af576040516370a0823160e01b81526001600160a01b038316906370a0823190613669903090600401614f68565b602060405180830381865afa158015613686573d6000803e3d6000fd5b505050506040513d601f19601f820116820180604052508101906136aa919061538d565b610b6e565b6025546040516370a0823160e01b81526001600160a01b03909116906370a08231906136df903090600401614f68565b602060405180830381865afa1580156136fc573d6000803e3d6000fd5b505050506040513d601f19601f82011682018060405250810190613720919061538d565b470192915050565b604080516002808252606080830184529260208301908036833701905050905082828260008151811061375d5761375d615377565b602002602001018360018151811061377757613777615377565b60209081029190910101919091525292915050565b6040805160018082528183019092526060916020808301908036833701905050905081816000815181106137c2576137c2615377565b602002602001018181525050919050565b600081156137e357506000919050565b610b6e6137ee610f50565b6001600160a01b031663029b465d6027600101546001600160a01b0316613813613c37565b60275460405160e085901b6001600160e01b03191681526138429392916001600160a01b0316906004016158c5565b602060405180830381865afa15801561385f573d6000803e3d6000fd5b505050506040513d601f19601f82011682018060405250810190613883919061538d565b612d316146fc565b60008411610f3a57610f3a836001848461477b565b7f158e00504b6e2b9f9abe924926be99e72fb1fd7c6bcaafc95ce02d9dabf0530090565b6000610b6b838361271003612710613991565b60008060006138e461183e565b5460408051600481526024810182526020810180516001600160e01b031663122835d560e21b17905290516001600160a01b039092169161392591906157af565b600060405180830381855af49150503d8060008114613960576040519150601f19603f3d011682016040523d82523d6000602084013e613965565b606091505b50915091508161397657600061398a565b8080602001905181019061398a919061538d565b9250505090565b60008383028160001985870982811083820303915050806000036139c8578382816139be576139be615995565b0492505050610a53565b8084116139d457600080fd5b6000848688096000868103871696879004966002600389028118808a02820302808a02820302808a02820302808a02820302808a02820302808a02909103029181900381900460010186841190950394909402919094039290920491909117919091029150509392505050565b6000806000613a4e61183e565b5460408051600481526024810182526020810180516001600160e01b031663711c9fab60e11b17905290516001600160a01b039092169161392591906157af565b6000610b6b8383612710613991565b6000818310613aad5781610b6b565b5090919050565b613abc614c2c565b81600003613acf57613acc6135ec565b91505b60005b60445460ff16811015613b0857613ae981846148fc565b828260088110613afb57613afb615377565b6020020152600101613ad2565b50919050565b6000805b6008811015613b0857828160088110613b2d57613b2d615377565b60200201519190910190600101613b12565b6000600160ff1b8214613b635760008213613b5d576136aa82615ac7565b81610b6e565b610b6e6001600160ff1b036001615ae3565b6000600080516020615bc6833981519152546006546001600160a01b039182169163029b465d91168560278660088110613bb157613bb1615377565b01546040516001600160e01b031960e086901b168152613bdf9392916001600160a01b0316906004016158c5565b602060405180830381865afa158015613bfc573d6000803e3d6000fd5b505050506040513d601f19601f82011682018060405250810190610b6b919061538d565b600081831015613c31576000610b6b565b50900390565b6033546040516395dd919360e01b81526000916001600160a01b0316906395dd919390613c68903090600401614f68565b602060405180830381865afa158015613c85573d6000803e3d6000fd5b505050506040513d601f19601f82011682018060405250810190610b2a919061538d565b6000610b6e60328201546040516370a0823160e01b81526001600160a01b03909116906370a0823190613ce0903090600401614f68565b602060405180830381865afa158015613cfd573d6000803e3d6000fd5b505050506040513d601f19601f82011682018060405250810190613d21919061538d565b611b0f612043613d2f6138a0565b5461ffff166135da876000614982565b6000610b6b838361271001612710613991565b600060328260088110613d6757613d67615377565b0160009054906101000a90046001600160a01b03166001600160a01b031663182df0f56040518163ffffffff1660e01b8152600401602060405180830381865afa158015613db9573d6000803e3d6000fd5b505050506040513d601f19601f82011682018060405250810190613ddd919061538d565b83670de0b6b3a76400000281613df557613df5615995565b049392505050565b6000610b6b82613e0e576064613e11565b60005b60475460ff91909116810390613e25610f50565b6001600160a01b031663029b465d6027600001546001600160a01b031688602760015b01546040516001600160e01b031960e086901b168152613e769392916001600160a01b0316906004016158c5565b602060405180830381865afa158015613e93573d6000803e3d6000fd5b505050506040513d601f19601f82011682018060405250810190613eb7919061538d565b9190613991565b6000806000846001600160a01b031684604051613edb91906157af565b6000604051808303816000865af19150503d8060008114613f18576040519150601f19603f3d011682016040523d82523d6000602084013e613f1d565b606091505b5091509150818015613f47575080511580613f47575080806020019051810190613f479190615af6565b8015610d4b5750505050506001600160a01b03163b151590565b6000613f766001600160a01b038416836149d5565b90508051600014158015613f9b575080806020019051810190613f999190615af6565b155b156110aa5782604051635274afe760e01b81526004016117c19190614f68565b60008111613fcb57600019613fcd565b805b905060005b60445460ff168110156112a857600060328260088110613ff457613ff4615377565b01546001600160a01b0316146112a85761404b6032826008811061401a5761401a615377565b01546001600160a01b0316836027846008811061403957614039615377565b01546001600160a01b031691906125d0565b600101613fd2565b604080516002808252606080830184529260208301908036833701905050905082828260008151811061408857614088615377565b60200260200101836001815181106140a2576140a2615377565b6001600160a01b0393841660209182029290920101529116905292915050565b60008060006140cf61183e565b5460408051600481526024810182526020810180516001600160e01b0316638726972960e01b17905290516001600160a01b039092169161392591906157af565b600080600061411d61183e565b5460408051600481526024810182526020810180516001600160e01b0316637ed76e6360e01b17905290516001600160a01b039092169161392591906157af565b60008411610f3a57600061417284866149e3565b9050614181816000858561477b565b5050505050565b478111156141ac57604051630ec59aa560e01b8152600481018290526024016117c1565b8015610cf957602560009054906101000a90046001600160a01b03166001600160a01b031663d0e30db0826040518263ffffffff1660e01b81526004016000604051808303818588803b15801561420257600080fd5b505af1158015611460573d6000803e3d6000fd5b6000600080516020615bc6833981519152546001600160a01b031663029b465d6027846008811061424957614249615377565b01546006546040516001600160e01b031960e085901b168152613bdf926001600160a01b039081169289929116906004016158c5565b600080600061428c61183e565b5460408051600481526024810182526020810180516001600160e01b031663478e148560e11b17905290516001600160a01b039092169161392591906157af565b6027546040516370a0823160e01b81526000916001600160a01b0316906370a08231906142fe903090600401614f68565b602060405180830381865afa15801561431b573d6000803e3d6000fd5b505050506040513d601f19601f8201168201806040525081019061433f919061538d565b905060008111801561436257506027546006546001600160a01b03918216911614155b15610f3a5760325460405163140e25ad60e31b8152600481018390526001600160a01b039091169063a0712d68906024016020604051808303816000875af11580156143b2573d6000803e3d6000fd5b505050506040513d601f19601f82011682018060405250810190614181919061538d565b60025462010000900460ff16610a1857604051638dfc202b60e01b815260040160405180910390fd5b600061440a82614a86565b158015610b6e575061441b82614aba565b1592915050565b6040516001600160a01b038381166024830152604482018390526110aa91859182169063a9059cbb90606401612652565b60025462010000900460ff1615610a185760405163d93c066560e01b815260040160405180910390fd5b604454606090610100900460ff166001600160401b038111156144a2576144a2614f99565b6040519080825280602002602001820160405280156144cb578160200160208202803683370190505b50905090565b60006144eb600080516020615be6833981519152336113e1565b6000805b604454610100900460ff16811015614665576006546001600160a01b0316603b826008811061452057614520615377565b01546001600160a01b0316148015906145525750600a86828151811061454857614548615377565b6020026020010151115b1561463e576026546001600160a01b03166398cd4036603b836008811061457b5761457b615377565b015460065489516001600160a01b0392831692909116908a90869081106145a4576145a4615377565b60200260200101518989878181106145be576145be615377565b90506020028101906145d091906157cb565b6040518663ffffffff1660e01b81526004016145f0959493929190615811565b60408051808303816000875af115801561460e573d6000803e3d6000fd5b505050506040513d601f19601f820116820180604052508101906146329190615845565b5092830192915061465d565b85818151811061465057614650615377565b6020026020010151830192505b6001016144ef565b50509392505050565b600061469a61469361468584604754606491020590565b61468d6146fc565b01614ade565b6000614afa565b60000392915050565b6000806146ae6146fc565b60305490915061ffff16156146e5576146e06146d96146d285604754606491020590565b8303614ade565b6000614b09565b610a53565b610a536146f06138a0565b54829061ffff16613d3f565b6000610b2a60328201546040516370a0823160e01b81526001600160a01b03909116906370a0823190614733903090600401614f68565b602060405180830381865afa158015614750573d6000803e3d6000fd5b505050506040513d601f19601f82011682018060405250810190614774919061538d565b60006149e3565b600281101561479d57604051635cb045db60e01b815260040160405180910390fd5b6046546040805163026b1d5f60e01b815290516001600160a01b039092169163026b1d5f916004808201926020929091908290030181865afa1580156147e7573d6000803e3d6000fd5b505050506040513d601f19601f8201168201806040525081019061480b9190615302565b6001600160a01b03166342b0b77c3085614830576028546001600160a01b031661483d565b6027546001600160a01b03165b866148505761484b886146a3565b614863565b61486361485c8961466e565b6001614982565b87898888600281811061487857614878615377565b905060200281019061488a91906157cb565b60405160200161489d9493929190615b13565b60405160208183030381529060405260006040518663ffffffff1660e01b81526004016148ce959493929190615b35565b600060405180830381600087803b1580156148e857600080fd5b505af115801561211c573d6000803e3d6000fd5b6000816000036149115761490e6135ec565b91505b600061491c84613366565b60315490915061ffff1615614978576149696030856008811061494157614941615377565b6010810491909101546031548692600f166002026101000a90910461ffff9081169116613991565b6149739082615b7e565b61497a565b805b949350505050565b6000610b6b6045600201548361499957606461499c565b60005b60ff16604560020154036149ae610f50565b6001600160a01b031663029b465d6027600101546001600160a01b03168860276000613e48565b6060610b6b83836000614b18565b6000670de0b6b3a764000060328360088110614a0157614a01615377565b0160009054906101000a90046001600160a01b03166001600160a01b031663182df0f56040518163ffffffff1660e01b8152600401602060405180830381865afa158015614a53573d6000803e3d6000fd5b505050506040513d601f19601f82011682018060405250810190614a77919061538d565b840281613df557613df5615995565b600062093a806202a3008360000151614a9f9190615ba5565b614aa99190615ba5565b6001600160401b0316421192915050565b8051600090614acd906202a30090615ba5565b6001600160401b0316421092915050565b6000614aeb826000613dfd565b614af3613c37565b0392915050565b6000818312613aad5781610b6b565b6000818313613aad5781610b6b565b606081471015614b3d573060405163cd78605960e01b81526004016117c19190614f68565b600080856001600160a01b03168486604051614b5991906157af565b60006040518083038185875af1925050503d8060008114614b96576040519150601f19603f3d011682016040523d82523d6000602084013e614b9b565b606091505b5091509150614bab868383614bb5565b9695505050505050565b606082614bc5576146e082614c03565b8151158015614bdc57506001600160a01b0384163b155b15614bfc5783604051639996b31560e01b81526004016117c19190614f68565b5080610a53565b805115614c135780518082602001fd5b604051630a12f52160e11b815260040160405180910390fd5b6040518061010001604052806008906020820280368337509192915050565b600060208284031215614c5d57600080fd5b81356001600160e01b03198116811461497857600080fd5b806101008101831015610b6e57600080fd5b60008083601f840112614c9957600080fd5b5081356001600160401b03811115614cb057600080fd5b6020830191508360208260051b8501011115614ccb57600080fd5b9250929050565b60008060006101208486031215614ce857600080fd5b614cf28585614c75565b92506101008401356001600160401b03811115614d0e57600080fd5b614d1a86828701614c87565b9497909650939450505050565b60005b83811015614d42578181015183820152602001614d2a565b50506000910152565b60008151808452614d63816020860160208601614d27565b601f01601f19169290920160200192915050565b602081526000610b6b6020830184614d4b565b8015158114610cf957600080fd5b60008060408385031215614dab57600080fd5b823591506020830135614dbd81614d8a565b809150509250929050565b8060005b6008811015610f3a578151845260209384019390910190600101614dcc565b6101008101610b6e8284614dc8565b60008060008060006101408688031215614e1357600080fd5b614e1d8787614c75565b94506101008601356001600160401b0380821115614e3a57600080fd5b614e4689838a01614c87565b9096509450610120880135915080821115614e6057600080fd5b50614e6d88828901614c87565b969995985093965092949392505050565b6001600160a01b0381168114610cf957600080fd5b60008083601f840112614ea557600080fd5b5081356001600160401b03811115614ebc57600080fd5b602083019150836020828501011115614ccb57600080fd5b60008060008060008060a08789031215614eed57600080fd5b8635614ef881614e7e565b955060208701359450604087013593506060870135614f1681614e7e565b925060808701356001600160401b03811115614f3157600080fd5b614f3d89828a01614e93565b979a9699509497509295939492505050565b600060208284031215614f6157600080fd5b5035919050565b6001600160a01b0391909116815260200190565b600060208284031215614f8e57600080fd5b813561497881614e7e565b634e487b7160e01b600052604160045260246000fd5b604051601f8201601f191681016001600160401b0381118282101715614fd757614fd7614f99565b604052919050565b600082601f830112614ff057600080fd5b81356001600160401b0381111561500957615009614f99565b61501c601f8201601f1916602001614faf565b81815284602083860101111561503157600080fd5b816020850160208301376000918101602001919091529392505050565b60006020828403121561506057600080fd5b81356001600160401b0381111561507657600080fd5b61497a84828501614fdf565b6000806000806000610160868803121561509b57600080fd5b6150a58787614c75565b945061010086013593506101208601356150be81614d8a565b92506101408601356001600160401b038111156150da57600080fd5b614e6d88828901614c87565b6020808252825182820181905260009190848201906040850190845b8181101561511e57835183529284019291840191600101615102565b50909695505050505050565b6000806000806060858703121561514057600080fd5b843561514b81614e7e565b935060208501356001600160401b0381111561516657600080fd5b61517287828801614e93565b9598909750949560400135949350505050565b6000806020838503121561519857600080fd5b82356001600160401b038111156151ae57600080fd5b6151ba85828601614c87565b90969095509350505050565b60008061012083850312156151da57600080fd5b6151e48484614c75565b9150610100830135614dbd81614d8a565b8060005b6008811015610f3a5781516001600160a01b03168452602093840193909101906001016151f9565b610300810161523082866151f5565b61523e6101008301856151f5565b61497a610200830184614dc8565b60008060006040848603121561526157600080fd5b833561526c81614e7e565b925060208401356001600160401b0381111561528757600080fd5b614d1a86828701614e93565b6000602082840312156152a557600080fd5b81356001600160401b038111156152bb57600080fd5b8201610220818503121561497857600080fd5b600181811c908216806152e257607f821691505b602082108103613b0857634e487b7160e01b600052602260045260246000fd5b60006020828403121561531457600080fd5b815161497881614e7e565b60008060006060848603121561533457600080fd5b833561533f81614d8a565b92506020840135915060408401356001600160401b0381111561536157600080fd5b61536d86828701614fdf565b9150509250925092565b634e487b7160e01b600052603260045260246000fd5b60006020828403121561539f57600080fd5b5051919050565b60008235605e198336030181126153bc57600080fd5b90910192915050565b6000808335601e198436030181126153dc57600080fd5b83016020810192503590506001600160401b038111156153fb57600080fd5b803603821315614ccb57600080fd5b81835281816020850137506000828201602090810191909152601f909101601f19169091010190565b600061543f82836153c5565b6060855261545160608601828461540a565b91505061546160208401846153c5565b858303602087015261547483828461540a565b92505050604083013560ff811680821461548d57600080fd5b604095909501949094529392505050565b80356154a981614e7e565b6001600160a01b0390811683526020820135906154c582614e7e565b90811660208401526040820135906154dc82614e7e565b90811660408401526060820135906154f382614e7e565b908116606084015260808201359061550a82614e7e565b908116608084015260a08201359061552182614e7e565b80821660a085015250505050565b80356001600160401b038116811461554657600080fd5b919050565b6001600160401b038061555d8361552f565b1683528061556d6020840161552f565b166020840152806155806040840161552f565b166040840152806155936060840161552f565b166060840152806155a66080840161552f565b166080840152505050565b6000808335601e198436030181126155c857600080fd5b83016020810192503590506001600160401b038111156155e757600080fd5b8060051b3603821315614ccb57600080fd5b8183526000602080850194508260005b8581101561563757813561561c81614e7e565b6001600160a01b031687529582019590820190600101615609565b509495945050505050565b818352600060208085019450826000805b8681101561568057823561ffff811680821461566d578384fd5b8952509683019691830191600101615653565b50959695505050505050565b60208152600061569c83846153a6565b6102208060208501526156b3610240850183615433565b91506156c5604085016020870161549e565b6156d6610100850160e0870161554b565b6156e46101808601866155b1565b601f196101a08188870301818901526156fe8684866155f9565b955061570c818a018a6155b1565b94509250506101c0818887030181890152615728868585615642565b9550615736818a018a6155b1565b94509250506101e08188870301818901526157528685856155f9565b9550615760818a018a6155b1565b945092505061020081888703018189015261577c8685856155f9565b955061578a818a018a6153c5565b9450925050808786030184880152506157a484838361540a565b979650505050505050565b600082516157c1818460208701614d27565b9190910192915050565b6000808335601e198436030181126157e257600080fd5b8301803591506001600160401b038211156157fc57600080fd5b602001915036819003821315614ccb57600080fd5b6001600160a01b03868116825285166020820152604081018490526080606082018190526000906157a4908301848661540a565b6000806040838503121561585857600080fd5b505080516020909101519092909150565b634e487b7160e01b600052601160045260246000fd5b81810381811115610b6e57610b6e615869565b6001600160a01b0385811682528416602082015260408101839052608060608201819052600090614bab90830184614d4b565b6001600160a01b0393841681526020810192909252909116604082015260600190565b6000606082840312156158fa57600080fd5b604051606081018181106001600160401b038211171561591c5761591c614f99565b604052825161592a81614e7e565b8152602083015161593a81614e7e565b60208201526040928301519281019290925250919050565b60008060006060848603121561596757600080fd5b835161597281614d8a565b60208501516040860151919450925061598a81614d8a565b809150509250925092565b634e487b7160e01b600052601260045260246000fd5b6020808252825182820181905260009190848201906040850190845b8181101561511e5783516001600160a01b0316835292840192918401916001016159c7565b600060208083850312156159ff57600080fd5b82516001600160401b0380821115615a1657600080fd5b818501915085601f830112615a2a57600080fd5b815181811115615a3c57615a3c614f99565b8060051b9150615a4d848301614faf565b8181529183018401918481019088841115615a6757600080fd5b938501935b83851015615a8557845182529385019390850190615a6c565b98975050505050505050565b6001600160a01b0385168152606060208201819052600090615ab6908301858761540a565b905082604083015295945050505050565b6000600160ff1b8201615adc57615adc615869565b5060000390565b80820180821115610b6e57610b6e615869565b600060208284031215615b0857600080fd5b815161497881614d8a565b8415158152836020820152606060408201526000614bab60608301848661540a565b6001600160a01b038681168252851660208201526040810184905260a060608201819052600090615b6890830185614d4b565b905061ffff831660808301529695505050505050565b8181036000831280158383131683831282161715615b9e57615b9e615869565b5092915050565b6001600160401b03818116838216019080821115615b9e57615b9e61586956febb12abea6d8b08b111bc540c50c61a89c6948c27ba2a9f019b29f0ec7e3b320071a9859d7dd21b24504a6f306077ffc2d510b4d4b61128e931fe937441ad1836a2646970667358221220c53a523eec3724721e08eae48dac5396899b0e167d37a2e6178f3c1939f3307c64736f6c63430008190033","abi":[{"inputs":[{"internalType":"address","name":"_accessController","type":"address"}],"stateMutability":"nonpayable","type":"constructor"},{"inputs":[{"internalType":"address","name":"target","type":"address"}],"name":"AddressEmptyCode","type":"error"},{"inputs":[{"internalType":"address","name":"account","type":"address"}],"name":"AddressInsufficientBalance","type":"error"},{"inputs":[],"name":"AddressZero","type":"error"},{"inputs":[{"internalType":"uint256","name":"amount","type":"uint256"}],"name":"AmountTooHigh","type":"error"},{"inputs":[{"internalType":"uint256","name":"amount","type":"uint256"}],"name":"AmountTooLow","type":"error"},{"inputs":[],"name":"ContractNonCompliant","type":"error"},{"inputs":[],"name":"EnforcedPause","type":"error"},{"inputs":[],"name":"ExpectedPause","type":"error"},{"inputs":[],"name":"FailedDelegateCall","type":"error"},{"inputs":[],"name":"FailedInnerCall","type":"error"},{"inputs":[],"name":"InvalidData","type":"error"},{"inputs":[],"name":"MissingOracle","type":"error"},{"inputs":[],"name":"ReentrancyGuardReentrantCall","type":"error"},{"inputs":[{"internalType":"address","name":"token","type":"address"}],"name":"SafeERC20FailedOperation","type":"error"},{"inputs":[],"name":"Unauthorized","type":"error"},{"anonymous":false,"inputs":[{"indexed":true,"internalType":"address","name":"sender","type":"address"},{"indexed":true,"internalType":"address","name":"owner","type":"address"},{"indexed":false,"internalType":"uint256","name":"assets","type":"uint256"},{"indexed":false,"internalType":"uint256","name":"shares","type":"uint256"}],"name":"Deposit","type":"event"},{"anonymous":false,"inputs":[{"indexed":true,"internalType":"address","name":"receiver","type":"address"},{"indexed":true,"internalType":"address","name":"owner","type":"address"},{"indexed":true,"internalType":"uint256","name":"requestId","type":"uint256"},{"indexed":false,"internalType":"address","name":"sender","type":"address"},{"indexed":false,"internalType":"uint256","name":"assets","type":"uint256"}],"name":"DepositRequest","type":"event"},{"anonymous":false,"inputs":[{"indexed":true,"internalType":"address","name":"receiver","type":"address"},{"indexed":true,"internalType":"address","name":"owner","type":"address"},{"indexed":false,"internalType":"uint256","name":"requestId","type":"uint256"},{"indexed":false,"internalType":"uint256","name":"amount","type":"uint256"}],"name":"DepositRequestCanceled","type":"event"},{"anonymous":false,"inputs":[{"indexed":false,"internalType":"uint256","name":"amount","type":"uint256"},{"indexed":false,"internalType":"uint256","name":"timestamp","type":"uint256"}],"name":"Harvest","type":"event"},{"anonymous":false,"inputs":[{"indexed":false,"internalType":"uint256","name":"amount","type":"uint256"},{"indexed":false,"internalType":"uint256","name":"timestamp","type":"uint256"}],"name":"Invest","type":"event"},{"anonymous":false,"inputs":[{"indexed":false,"internalType":"uint256","name":"amount","type":"uint256"},{"indexed":false,"internalType":"uint256","name":"liquidityAvailable","type":"uint256"},{"indexed":false,"internalType":"uint256","name":"timestamp","type":"uint256"}],"name":"Liquidate","type":"event"},{"anonymous":false,"inputs":[{"indexed":false,"internalType":"address","name":"account","type":"address"}],"name":"Paused","type":"event"},{"anonymous":false,"inputs":[{"indexed":true,"internalType":"address","name":"receiver","type":"address"},{"indexed":true,"internalType":"address","name":"owner","type":"address"},{"indexed":true,"internalType":"uint256","name":"requestId","type":"uint256"},{"indexed":false,"internalType":"address","name":"sender","type":"address"},{"indexed":false,"internalType":"uint256","name":"shares","type":"uint256"}],"name":"RedeemRequest","type":"event"},{"anonymous":false,"inputs":[{"indexed":true,"internalType":"address","name":"receiver","type":"address"},{"indexed":true,"internalType":"address","name":"owner","type":"address"},{"indexed":false,"internalType":"uint256","name":"requestId","type":"uint256"},{"indexed":false,"internalType":"uint256","name":"shares","type":"uint256"}],"name":"RedeemRequestCanceled","type":"event"},{"anonymous":false,"inputs":[{"indexed":false,"internalType":"address","name":"account","type":"address"}],"name":"Unpaused","type":"event"},{"anonymous":false,"inputs":[{"indexed":true,"internalType":"address","name":"sender","type":"address"},{"indexed":true,"internalType":"address","name":"receiver","type":"address"},{"indexed":true,"internalType":"address","name":"owner","type":"address"},{"indexed":false,"internalType":"uint256","name":"assets","type":"uint256"},{"indexed":false,"internalType":"uint256","name":"shares","type":"uint256"}],"name":"Withdraw","type":"event"},{"stateMutability":"payable","type":"fallback"},{"inputs":[],"name":"RESCUE_TIMELOCK","outputs":[{"internalType":"uint64","name":"","type":"uint64"}],"stateMutability":"view","type":"function"},{"inputs":[],"name":"RESCUE_VALIDITY","outputs":[{"internalType":"uint64","name":"","type":"uint64"}],"stateMutability":"view","type":"function"},{"inputs":[],"name":"accessController","outputs":[{"internalType":"address","name":"","type":"address"}],"stateMutability":"view","type":"function"},{"inputs":[],"name":"agent","outputs":[{"internalType":"address","name":"","type":"address"}],"stateMutability":"view","type":"function"},{"inputs":[],"name":"asset","outputs":[{"internalType":"contract IERC20Metadata","name":"","type":"address"}],"stateMutability":"view","type":"function"},{"inputs":[],"name":"claimRewards","outputs":[{"internalType":"uint256[]","name":"amounts","type":"uint256[]"}],"stateMutability":"nonpayable","type":"function"},{"inputs":[],"name":"claimableTransactionFees","outputs":[{"internalType":"uint256","name":"","type":"uint256"}],"stateMutability":"view","type":"function"},{"inputs":[{"internalType":"uint256[8]","name":"_amounts","type":"uint256[8]"},{"internalType":"bytes[]","name":"_harvestParams","type":"bytes[]"},{"internalType":"bytes[]","name":"_investParams","type":"bytes[]"}],"name":"compound","outputs":[{"internalType":"uint256","name":"totalHarvested","type":"uint256"},{"internalType":"uint256","name":"totalInvested","type":"uint256"}],"stateMutability":"nonpayable","type":"function"},{"inputs":[],"name":"decimals","outputs":[{"internalType":"uint8","name":"","type":"uint8"}],"stateMutability":"view","type":"function"},{"inputs":[{"internalType":"address","name":"_token","type":"address"},{"internalType":"uint256","name":"_loan","type":"uint256"},{"internalType":"uint256","name":"_fee","type":"uint256"},{"internalType":"address","name":"","type":"address"},{"internalType":"bytes","name":"_params","type":"bytes"}],"name":"executeOperation","outputs":[{"internalType":"bool","name":"","type":"bool"}],"stateMutability":"nonpayable","type":"function"},{"inputs":[{"internalType":"address","name":"","type":"address"}],"name":"exemptionList","outputs":[{"internalType":"bool","name":"","type":"bool"}],"stateMutability":"view","type":"function"},{"inputs":[],"name":"feeCollector","outputs":[{"internalType":"address","name":"","type":"address"}],"stateMutability":"view","type":"function"},{"inputs":[],"name":"fees","outputs":[{"internalType":"uint64","name":"perf","type":"uint64"},{"internalType":"uint64","name":"mgmt","type":"uint64"},{"internalType":"uint64","name":"entry","type":"uint64"},{"internalType":"uint64","name":"exit","type":"uint64"},{"internalType":"uint64","name":"flash","type":"uint64"}],"stateMutability":"view","type":"function"},{"inputs":[{"internalType":"bytes[]","name":"_params","type":"bytes[]"}],"name":"harvest","outputs":[{"internalType":"uint256","name":"","type":"uint256"}],"stateMutability":"nonpayable","type":"function"},{"inputs":[],"name":"implementation","outputs":[{"internalType":"address","name":"","type":"address"}],"stateMutability":"view","type":"function"},{"inputs":[{"components":[{"components":[{"internalType":"string","name":"name","type":"string"},{"internalType":"string","name":"symbol","type":"string"},{"internalType":"uint8","name":"decimals","type":"uint8"}],"internalType":"struct Erc20Metadata","name":"erc20Metadata","type":"tuple"},{"components":[{"internalType":"address","name":"wgas","type":"address"},{"internalType":"address","name":"asset","type":"address"},{"internalType":"address","name":"feeCollector","type":"address"},{"internalType":"address","name":"swapper","type":"address"},{"internalType":"address","name":"agent","type":"address"},{"internalType":"address","name":"oracle","type":"address"}],"internalType":"struct CoreAddresses","name":"coreAddresses","type":"tuple"},{"components":[{"internalType":"uint64","name":"perf","type":"uint64"},{"internalType":"uint64","name":"mgmt","type":"uint64"},{"internalType":"uint64","name":"entry","type":"uint64"},{"internalType":"uint64","name":"exit","type":"uint64"},{"internalType":"uint64","name":"flash","type":"uint64"}],"internalType":"struct Fees","name":"fees","type":"tuple"},{"internalType":"address[]","name":"inputs","type":"address[]"},{"internalType":"uint16[]","name":"inputWeights","type":"uint16[]"},{"internalType":"address[]","name":"lpTokens","type":"address[]"},{"internalType":"address[]","name":"rewardTokens","type":"address[]"},{"internalType":"bytes","name":"extension","type":"bytes"}],"internalType":"struct StrategyParams","name":"_params","type":"tuple"}],"name":"init","outputs":[],"stateMutability":"nonpayable","type":"function"},{"inputs":[],"name":"initialized","outputs":[{"internalType":"bool","name":"","type":"bool"}],"stateMutability":"view","type":"function"},{"inputs":[{"internalType":"uint256","name":"","type":"uint256"}],"name":"inputWeights","outputs":[{"internalType":"uint16","name":"","type":"uint16"}],"stateMutability":"view","type":"function"},{"inputs":[{"internalType":"uint256","name":"","type":"uint256"}],"name":"inputs","outputs":[{"internalType":"contract IERC20Metadata","name":"","type":"address"}],"stateMutability":"view","type":"function"},{"inputs":[{"internalType":"uint256[8]","name":"_amounts","type":"uint256[8]"},{"internalType":"bytes[]","name":"_params","type":"bytes[]"}],"name":"invest","outputs":[{"internalType":"uint256","name":"totalInvested","type":"uint256"}],"stateMutability":"nonpayable","type":"function"},{"inputs":[{"internalType":"uint256","name":"_index","type":"uint256"}],"name":"invested","outputs":[{"internalType":"uint256","name":"","type":"uint256"}],"stateMutability":"view","type":"function"},{"inputs":[],"name":"invested","outputs":[{"internalType":"uint256","name":"total","type":"uint256"}],"stateMutability":"view","type":"function"},{"inputs":[{"internalType":"uint256","name":"_index","type":"uint256"}],"name":"investedInput","outputs":[{"internalType":"uint256","name":"","type":"uint256"}],"stateMutability":"view","type":"function"},{"inputs":[],"name":"last","outputs":[{"internalType":"uint64","name":"feeCollection","type":"uint64"},{"internalType":"uint64","name":"liquidateRequest","type":"uint64"},{"internalType":"uint64","name":"liquidate","type":"uint64"},{"internalType":"uint64","name":"harvest","type":"uint64"},{"internalType":"uint64","name":"invest","type":"uint64"},{"internalType":"uint256","name":"sharePrice","type":"uint256"},{"internalType":"uint256","name":"accountedSharePrice","type":"uint256"},{"internalType":"uint256","name":"accountedProfit","type":"uint256"},{"internalType":"uint256","name":"accountedAssets","type":"uint256"},{"internalType":"uint256","name":"accountedSupply","type":"uint256"}],"stateMutability":"view","type":"function"},{"inputs":[{"internalType":"uint256[8]","name":"_amounts","type":"uint256[8]"},{"internalType":"uint256","name":"_minLiquidity","type":"uint256"},{"internalType":"bool","name":"_panic","type":"bool"},{"internalType":"bytes[]","name":"_params","type":"bytes[]"}],"name":"liquidate","outputs":[{"internalType":"uint256","name":"totalRecovered","type":"uint256"}],"stateMutability":"nonpayable","type":"function"},{"inputs":[{"internalType":"uint256","name":"_amount","type":"uint256"}],"name":"liquidateRequest","outputs":[{"internalType":"uint256","name":"","type":"uint256"}],"stateMutability":"nonpayable","type":"function"},{"inputs":[{"internalType":"uint256","name":"","type":"uint256"}],"name":"lpTokens","outputs":[{"internalType":"contract IERC20Metadata","name":"","type":"address"}],"stateMutability":"view","type":"function"},{"inputs":[],"name":"maxTotalAssets","outputs":[{"internalType":"uint256","name":"","type":"uint256"}],"stateMutability":"view","type":"function"},{"inputs":[],"name":"minLiquidity","outputs":[{"internalType":"uint256","name":"","type":"uint256"}],"stateMutability":"view","type":"function"},{"inputs":[],"name":"name","outputs":[{"internalType":"string","name":"","type":"string"}],"stateMutability":"view","type":"function"},{"inputs":[],"name":"oracle","outputs":[{"internalType":"contract IPriceProvider","name":"","type":"address"}],"stateMutability":"view","type":"function"},{"inputs":[],"name":"params","outputs":[{"internalType":"contract IUnitroller","name":"unitroller","type":"address"},{"internalType":"contract IPoolAddressesProvider","name":"aavePoolProvider","type":"address"},{"internalType":"uint256","name":"leverage","type":"uint256"}],"stateMutability":"view","type":"function"},{"inputs":[],"name":"pause","outputs":[],"stateMutability":"nonpayable","type":"function"},{"inputs":[],"name":"paused","outputs":[{"internalType":"bool","name":"","type":"bool"}],"stateMutability":"view","type":"function"},{"inputs":[{"internalType":"uint256","name":"_amount","type":"uint256"},{"internalType":"bool","name":"_investing","type":"bool"}],"name":"preview","outputs":[{"internalType":"uint256[8]","name":"amounts","type":"uint256[8]"}],"stateMutability":"nonpayable","type":"function"},{"inputs":[{"internalType":"uint256[8]","name":"_previewAmounts","type":"uint256[8]"},{"internalType":"bool","name":"_investing","type":"bool"}],"name":"previewSwapAddons","outputs":[{"internalType":"address[8]","name":"from","type":"address[8]"},{"internalType":"address[8]","name":"to","type":"address[8]"},{"internalType":"uint256[8]","name":"amounts","type":"uint256[8]"}],"stateMutability":"nonpayable","type":"function"},{"inputs":[{"internalType":"address","name":"_token","type":"address"}],"name":"requestRescue","outputs":[],"stateMutability":"nonpayable","type":"function"},{"inputs":[{"internalType":"address","name":"_token","type":"address"}],"name":"rescue","outputs":[],"stateMutability":"nonpayable","type":"function"},{"inputs":[{"internalType":"uint256","name":"","type":"uint256"}],"name":"rewardTokens","outputs":[{"internalType":"address","name":"","type":"address"}],"stateMutability":"view","type":"function"},{"inputs":[],"name":"rewardsAvailable","outputs":[{"internalType":"uint256[]","name":"amounts","type":"uint256[]"}],"stateMutability":"view","type":"function"},{"inputs":[{"internalType":"bytes","name":"_params","type":"bytes"}],"name":"setParams","outputs":[],"stateMutability":"nonpayable","type":"function"},{"inputs":[{"internalType":"bytes4","name":"_interfaceId","type":"bytes4"}],"name":"supportsInterface","outputs":[{"internalType":"bool","name":"","type":"bool"}],"stateMutability":"pure","type":"function"},{"inputs":[],"name":"swapper","outputs":[{"internalType":"contract ISwapper","name":"","type":"address"}],"stateMutability":"view","type":"function"},{"inputs":[],"name":"symbol","outputs":[{"internalType":"string","name":"","type":"string"}],"stateMutability":"view","type":"function"},{"inputs":[],"name":"unpause","outputs":[],"stateMutability":"nonpayable","type":"function"},{"inputs":[{"internalType":"address","name":"_agent","type":"address"}],"name":"updateAgent","outputs":[],"stateMutability":"nonpayable","type":"function"},{"inputs":[{"internalType":"address","name":"_asset","type":"address"},{"internalType":"bytes","name":"_swapData","type":"bytes"},{"internalType":"uint256","name":"_exchangeRateBp","type":"uint256"}],"name":"updateAsset","outputs":[],"stateMutability":"nonpayable","type":"function"},{"inputs":[{"internalType":"address","name":"_asset","type":"address"},{"internalType":"bytes","name":"_swapData","type":"bytes"}],"name":"updateAsset","outputs":[],"stateMutability":"nonpayable","type":"function"},{"inputs":[{"internalType":"address","name":"_oracle","type":"address"}],"name":"updateOracle","outputs":[],"stateMutability":"nonpayable","type":"function"},{"stateMutability":"payable","type":"receive"}]}